:020000040800F2
:10000000501100206D080008710800080101000867
:10001000750800087708000879080008000000004B
:100020000000000000000000000000007B08000845
:100030007D080008000000007F080008A1020008F9
:100040008308000883080008830800088308000864
:100050008308000883080008830800088308000854
:100060008308000883080008830800088308000844
:100070008308000883080008830800088308000834
:100080008308000883080008830800088308000824
:100090008308000883080008830800088308000814
:1000A0008308000883080008830800088308000804
:1000B00083080008830800088308000883080008F4
:1000C00083080008830800088308000883080008E4
:1000D00083080008830800088308000883080008D4
:1000E000830800088308000883080008DFF80CD0A4
:1000F00001F08AFB00480047F3010008501100207E
:1001000000BF3E48006800F4E0603D490843001D20
:100110003A490860BFF3408F00BF00BFFEE730B52B
:1001200093B062B600F022FB3D20364988614FF063
:1001300000703549486000F057FC012233A102A845
:1001400000F078FCA0B102A800F09BFD08222FA1CE
:1001500002A800F06FFC58B92F48006801F012FBAC
:10016000054601AB2A462C48016802A800F0B6FEFD
:1001700002A800F086FD29A129A001F06DFA04462D
:10018000A4B9204601F0BCFA29A125A001F064FA27
:1001900004465CB12748006801F0F4FA054623469E
:1001A000012229462348006801F095FA204601F013
:1001B000A7FA012220A102A800F03CFCA0B102A8ED
:1001C00000F05FFD08221CA102A800F033FC58B922
:1001D0001D48006801F0D6FA054601AB2A461A48C8
:1001E000016802A800F07AFE02A800F04AFD13B0F0
:1001F00030BDFFF794FF00BFFEE700000CED00E00C
:100200000000FA05001002400000014063612D6308
:100210006572742E70656D00000000207200000091
:100220007365727665722D636572742E70656D00EC
:1002300077000000040000207365727665722D6BF4
:1002400065792E70656D00000800002030B502460B
:10025000154800684FF47A71B0FBF1F05043401E2E
:100260004FF0E021486148170921002807DA0B0701
:100270001D0E0E4B00F00F04241F1D5503E00B074D
:100280001C0E0B4B1C5400BF00204FF0E021886176
:100290000720086130BD00204FF0E0210861704761
:1002A00010B500F079F910BD2000002018ED00E035
:1002B00000E400E002281ED1B049098801F4415150
:1002C000AE4A11801146098841F44D711180AB4945
:1002D0001C3109884FF2FF721140A84A1C3211806C
:1002E0000721A64A10321180A449098841F0400133
:1002F000A24A118058E0012856D1A149896941F4E8
:1003000080519F4A91619F490968C1F313019D4A39
:1003100011601146096821F47021116011460968C5
:1003200041F4403111609849496821F47001964ABE
:1003300051601146496841F4401151601146096904
:1003400041F4005111618F491031096841F01001E9
:100350008C4A103211608B49096841F43001894A96
:1003600011601146096841F0306111601146096859
:1003700041F0304111608549098801F44151834AB7
:1003800011801146098841F44D7111801146898B05
:100390004FF2FF7211407D4A91830721118211466D
:1003A000098841F040011180704702281ED173492D
:1003B000098801F44151714A11801146098841F4BC
:1003C000417111806D491C3109884FF2FF72114053
:1003D0006A4A1C3211800721684A1032118067492D
:1003E000098841F04001654A118048E0012846D162
:1003F0006349896941F48051614A916161490968A1
:10040000C1F313015F4A11601146096821F470219C
:1004100011601146096841F44031116059491031A9
:10042000096841F01001574A1032116055490968B6
:1004300041F43001534A11601146096841F03061BE
:1004400011601146096841F0304111604F49098837
:1004500001F441514D4A11801146098841F443711C
:1004600011801146898B4FF2FF721140474A9183E8
:10047000072111821146098841F04001118070471F
:1004800040480068C0F313003E4908600846006811
:1004900020F4702008603A48806920F48050384980
:1004A0008861704730B50246394B918100BF14898D
:1004B00014F0010F03D11C00A3F10103F7D19489BB
:1004C000E0B230BDF0B502464C081046304B00BFDC
:1004D00010F8016B2D4FBE812D4B00BF2B4E36897E
:1004E00016F0010F03D11E00A3F10103F6D1274E30
:1004F000B689F5B210F8016B244FBE81244B00BFC2
:10050000224E368916F0010F03D11E00A3F101031C
:10051000F6D11E4EB689F5B2661E3400D8D1F0BDB4
:1005200070B502464C081046194B00BFFF25174E08
:10053000B581174B00BF154D2D8915F0010F03D163
:100540001D00A3F10103F6D1104DAD8900F8015B48
:10055000FF250E4EB5810E4B00BF0C4D2D8915F0B9
:10056000010F03D11D00A3F10103F6D1074DAD89A1
:1005700000F8015B651E2C00D8D170BD003800402A
:10058000001002400008014000100140003001400E
:10059000A0860100704770473A480068401C3949FE
:1005A0000860394802684068521C40F10000364932
:1005B0000A6048603348006840F2E731B0FBF1F26E
:1005C00001FB120020B931480068401C2F49086027
:1005D00070472C48006870472B4908684968704785
:1005E00000B50146FFF7F5FF024600BFFFF7F1FF38
:1005F000801A8842FAD300BD00B50246FFF7E9FF32
:1006000010605160D2E900031844906000BD10B53D
:100610000146D1E9000402198868904201D0002007
:1006200010BDFFF7D6FF0246D1E9000420448860E0
:100630000868904202D80868131A03E00868C0F1FD
:10064000FF3083184868984201D80020E8E74868DE
:10065000C01AE5E700B50246FFF7BBFF03460EE010
:10066000FFF7B7FF0146994203D3C81A904206D359
:1006700006E0C3F1FF300844904200D300E0EFE70A
:1006800000BF00BD14000020180000201000002052
:100690000CB50020019000906B48006840F001000C
:1006A0006949086000BF6848006800F002000090D7
:1006B0000198401C0190009818B90198B0F5A06FFE
:1006C000F1D16148006810F0020F02D001200090C3
:1006D00001E0002000900098012842D15B480068AA
:1006E00040F01000594908600846006820F00300F7
:1006F00008600846006840F0010008605248406801
:10070000514948600846406848600846406840F4DF
:10071000806048600846406820F47C1048600846C5
:10072000406840F4201048600846006840F080703F
:10073000086000BF4448006810F0007FFAD04248CB
:10074000406820F00300404948600846406840F097
:100750000200486000BF3C48406800F00C000828D8
:10076000F9D10CBD10B5FFF793FF10BD10B5364899
:10077000006840F001003449086008464068344988
:1007800008403149486008460068324908402E490F
:1007900008600846006820F4802008600846406829
:1007A00020F4FE0048604FF41F008860FFF7DAFF76
:1007B0004FF000602849086010BD10B500210020EE
:1007C0000022214B5B6803F00C0121B1042906D003
:1007D000082928D107E0214B214C236027E01F4B3B
:1007E0001F4C236023E0184B5B6803F47010164B1A
:1007F0005B6803F48032022303EB904022B9194B6B
:100800004343174C23600DE00F4B5B6813F4003F2C
:1008100004D0144B4343124C236003E00F4B43437B
:100820000F4C236003E00D4B0D4C236000BF00BF55
:10083000054B5B68C3F303130B4CE15C084B1B686F
:10084000CB40074C236010BD001002400020024046
:100850000000FFF8FFFFF6FE08ED00E000127A004E
:100860002000002000093D0024000020054800472A
:10087000FEE7FEE7FEE7FEE7FEE7FEE7FEE7FEE750
:10088000FEE7FEE7ED00000810B504460121204612
:1008900000F051FC08B9002010BD0120FCE710B5A4
:1008A00002460B460020002102E0545C2044491C13
:1008B0009942FAD310BD30B589B0044614B901206D
:1008C00009B030BD2022214601A800F037FF0020EA
:1008D0008DF8230040212046FFF7E1FF05462078F0
:1008E00008B3206A6E281ED2A06A6E281BD2606AE6
:1008F0006E2818D2206CA84215D1206BB0F1A53F0C
:1009000011D1606BE16B88420DD8E06BFE498842E3
:1009100009D2A06BFF2806D801A800F033FF1D28DC
:1009200001D20020CCE70120CAE770B504460D468D
:10093000164632462946204600F0DAFD08B9002066
:1009400070BD0120FCE710B504462046FFF7B3FF59
:1009500070B9216A4FF4122202EB01304422214681
:10096000FFF7E3FF2046FFF7A6FF08B9002010BD00
:100970000120FCE730B591B0002430E04FF41221A3
:1009800001EB043044226946FFF7CFFF6846FFF7CA
:10099000DAFF18BB089D4FF41222089902EB0130D0
:1009A00044226946FFF7C1FF6846FFF784FFA8B9F4
:1009B0004FF41222089902EB013101F18800442220
:1009C0006946FFF7B2FF6846FFF775FF012805D1BA
:1009D0004FF4122101EB0530FFF756FF641C6E2C1B
:1009E000CCD3002011B030BD10B500F049FB18B9D0
:1009F000FFF7C0FF002010BD0120FCE770B50446E2
:100A00000D46164632462946204600F0F4FC08B949
:100A1000002070BD0120FCE710B5002406E04FF473
:100A2000122101EB0430FFF72FFF641C6E2CF6D36C
:100A3000002010BD2DE9F04104468846164614B941
:100A40000120BDE8F08100F067FEB049086008466B
:100A500000686E21B0FBF1F201FB1200AB490860A7
:100A600008460768056865E0A848006830B16D1E53
:100A7000A6480068401EA549086003E00FB13D4646
:100A800000276D1C4FF4122101EB05304422214652
:100A9000FFF74BFF2046FFF756FF10BB16F0910FF4
:100AA00048D02146404600F074FE002842D1216A19
:100AB0004FF4122202EB013101F188004422214659
:100AC000FFF733FF2046FFF7F6FE80BB16F0020F5C
:100AD00002D00220A06301E00120A0630020606337
:100AE000AFE716F00C0F25D04146204600F06CFE13
:100AF0002562A56265624FF0FF30E0620020E0638E
:100B000060634FF0A53020630220A063402120469F
:100B1000FFF7C5FE2064216A4FF4122202EB013078
:100B200044222146FFF76AFF10B9002089E701E05F
:100B3000012086E76E2D97D300202070012080E7EA
:100B400070B592B0054600F0E7FD704908600846B0
:100B500000686E21B0FBF1F201FB12006B490860E6
:100B60000846066804681EE06848006830B1641EE4
:100B700066480068401E6549086003E00EB13446CF
:100B80000026641C4FF4122101EB0430442201A919
:100B9000FFF7CBFE01A8FFF7D6FE012803D12C609A
:100BA000002012B070BD6E2CDED30120F9E730B505
:100BB00091B0002500240EE04FF4122101EB043027
:100BC00044226946FFF7B1FE6846FFF7BCFE0128E4
:100BD00000D16D1C641C6E2CEED3284611B030BDC4
:100BE00070B5054600241DE04FF4122101EB0430DE
:100BF00044222946FFF799FE2846FFF7A4FE80B954
:100C0000296A4FF4122202EB013101F188004422DB
:100C10002946FFF78AFE2846FFF74DFE08B9002057
:100C200070BD641C6E2CDFD30120F9E730B591B0A4
:100C30000546002421E04FF4122101EB0430442248
:100C40006946FFF772FE6846FFF77DFEA0B9694668
:100C5000284600F09EFD78B94FF41222089902EB65
:100C60000130FFF711FE4FF4122101EB0430FFF7C2
:100C70000BFE002011B030BD641C6E2CDBD30120B4
:100C8000F8E770B592B00446C4B1206A6E2815D258
:100C9000A06A6E2812D2606A6E280FD2207868B1DE
:100CA000E06B1949884209D8606B884206D8606BAE
:100CB000E16B884202D8A06B022802D9012012B051
:100CC00070BDA06B022849D194F83C50606B401B6A
:100CD0004FF47061B0FBF1F201FB1201A06A4FF416
:100CE000122202EB0030084400F580764FF4807247
:100CF00007493046FFF782FE216A4FF4122202EBC9
:100D0000013101F1440005E0A0860100340000201B
:100D10004C010020442201A9FFF707FE206AA062CF
:100D20000C98E062206A606240212046FFF7B7FD20
:100D30002064216A4FF4122202EB013101F1880094
:100D400044222146FFF75AFE40B1216A4FF4122295
:100D500002EB0130FFF798FD0120B0E70020207082
:100D600000BFACE72DE9F04192B004460D464FF4C8
:100D70007060B5FBF0F8266A002713E04FF41221EB
:100D800001EB063101F14400442201A9FFF7CDFD3A
:100D900001A8FFF790FD012802D112B0BDE8F08153
:100DA0000C9E7F1C4745E9D3A6620C98E0620A9826
:100DB000606265630020F0E710B592B00446216AD6
:100DC0004FF4122202EB013101F14400442201A947
:100DD000FFF7ABFD01A8FFF76EFD012801D112B0AE
:100DE00010BD0C98A0620C98E0620A986062002026
:100DF000F5E72DE9F0470446894617461E46C4B17B
:100E0000206A6E2815D2A06A6E2812D2606A6E28F7
:100E10000FD2207868B1E06B9649884209D8606BA0
:100E2000884206D8606BE16B884202D8A06B02282A
:100E300002D90120BDE8F087606B3844E16B88423D
:100E400001D2376003E0E06B616B401A3060606B89
:100E50004FF47061B0FBF1F201FB120530682844D9
:100E6000B0F5706F0CD83268A16A4FF4122303EB0F
:100E7000013101F5807148194946FFF756FD27E019
:100E8000C5F57068A16A4FF4122202EB013101F539
:100E90008071481942464946FFF747FD30680544CE
:100EA0004FF47060B5FBF0F100FB11552046FFF7E1
:100EB00083FF012800D1BDE709EB0801A26A4FF4C6
:100EC000122303EB023202F580702A46FFF72DFD54
:100ED000606B3168084460630020ABE72DE9F8439C
:100EE00004460F4616469846DCB1206A6E2818D292
:100EF000A06A6E2815D2606A6E2812D2207880B15E
:100F0000A06B02280DD1E06B5A49884209D8606B6A
:100F1000884206D8606BE16B884202D8A06B022839
:100F200002D90120BDE8F883C8F80060002575E00B
:100F3000785D94F83410504A5054E06B401CE063E4
:100F4000606B401C606394F83400002864D1606BCF
:100F5000A0F580704FF47061B0FBF1F201FB12015B
:100F6000A06A4FF4122202EB0030084400F58079A9
:100F70004FF4807240494846FFF740FD20B14FF0E2
:100F80005A3020630120CDE7606B4FF47061B0FBF5
:100F9000F1F201FB1200C8BB6846FFF7D1FD012842
:100FA00004D14FF05A3020630120BBE70098E06283
:100FB00040212046FFF773FC2064A16A4FF41222FF
:100FC00002EB013101F1440044222146FFF716FDF6
:100FD00020B14FF05A3020630120A3E7A06A60627D
:100FE0000098A06240212046FFF759FC2064A16AC6
:100FF0004FF4122202EB013044222146FFF7FEFC9F
:1010000020B14FF05A30206301208BE7FFE7FF2229
:10101000511C194800F0A4FB681C85B2B54287D367
:1010200000207FE770B504460E46ACB1206A6E28FA
:1010300012D8207880B1A06B02280DD1E06B0D4949
:10104000884209D8606B884206D8606BE16B8842A1
:1010500002D8A06B022801D9012070BD3146074893
:1010600000F0E4FB0546FF2D01D94FF48075002008
:10107000F3E70000A08601004C0100204C00002096
:1010800010B50120FFF791F9002010BD10B5FA4806
:10109000006840F01000F8490860F848006940F422
:1010A0000050F64908610521F548FFF7FBF9FF21DB
:1010B000F348FFF7F7F90446EF48001F006840F0D7
:1010C0001000ED49091F0860204610BD70B542F2BE
:1010D000107400E0641EFFF7D9FF10F0010F01D07B
:1010E000002CF7D1E448006840F01000E2490860A5
:1010F000E248006940F40050E04908610621E048F8
:10110000FFF7D0F9DC48001F006840F01000DA4912
:10111000091F086042F2107400BFFFF7B7FF0546D1
:10112000641E15F0010F02D115F0020F01D1002C41
:10113000F3D1002070BD2DE9F04105460F4642F283
:10114000107407E0641EFFF7A1FF064616F0010FBA
:1011500000D101E0002CF5D100BF3CB9C9480068BE
:10116000401CC84908600120BDE8F081FFF7AEFFD0
:10117000C148006840F01000BF490860BF480069DE
:1011800040F40050BD49086137B1012F12D0022F41
:1011900015D0032F1DD117E06021B948FFF782F960
:1011A000B548001F006840F01000B349091F0860EF
:1011B0000020D9E72021B248FFF774F909E0522155
:1011C000AF48FFF76FF904E0D821AD48FFF76AF99F
:1011D00000BF00BFC5F30741A948FFF763F9C5F396
:1011E0000721A748FFF75EF9E9B2A548FFF75AF9CA
:1011F000A148001F006840F010009F49091F0860C7
:1012000042F2107407E0641EFFF740FF064616F036
:10121000030F00D101E0002CF5D100BF24B999489B
:101220000068401C974908600CB100209CE7012031
:101230009AE72DE9F04105460F46904642F21074B8
:1012400007E0641EFFF722FF064616F0010F00D1EB
:1012500001E0002CF5D100BF3CB98A480068401C71
:10126000884908600120BDE8F081FFF72FFF824820
:10127000006840F01000804908608048006940F430
:1012800000507E49086102217D48FFF70BF9C5F344
:1012900007417B48FFF706F9C5F307217848FFF7B8
:1012A00001F9E9B27648FFF7FDF806E017F8011BEF
:1012B0007348FFF7F7F8A8F10108B8F1000FF5D16E
:1012C0006D48001F006840F010006B49091F08605E
:1012D00042F2107407E0641EFFF7D8FE064616F0CF
:1012E000030F00D101E0002CF5D100BF24B96548FF
:1012F0000068401C634908600CB10020B3E701207E
:10130000B1E72DE9F04105460F46144600262805B1
:10131000000D03D101212846FFF70DFFC5F30B0097
:101320002044B0F5805F03D92819C0F30B06A41B35
:10133000224639462846FFF77CFF10B10120BDE860
:10134000F0815EB128190121FFF7F5FE391928193E
:101350003246FFF76EFF08B10120F0E70020EEE70C
:101360002DE9F04104460D46174642F2107600E0A2
:10137000761EFFF78BFE10F0010F01D0002EF7D183
:101380003D48006840F010003B4908603B48006958
:1013900040F40050394908610B213948FFF782F8C1
:1013A000C4F307413648FFF77DF8C4F307213448FA
:1013B000FFF778F8E1B23248FFF774F800213048BF
:1013C000FFF770F805E000212D48FFF76BF805F8EE
:1013D000010B3800A7F10107F5D12748001F00686D
:1013E00040F010002449091F086016B10020BDE834
:1013F000F0810120FBE72DE9F04705460F469046B6
:1014000000261FFA88F4B946B4F5807F1EDC224618
:1014100039462846FFF775FF10B10120BDE8F08777
:10142000224619492846FFF79BFF08B10120F5E73E
:1014300022463946144800F0BAF9002856D013481D
:101440000068401C114908600120E7E74CE0FF2CD0
:101450002FDDA8194FF480724946FFF752FF08B1FB
:101460000120DBE7A8194FF480720749FFF778FFE6
:1014700070B10120D2E700001408014000100140C3
:1014800000300140380000204C0200203C000020C9
:101490004FF4807249466C4800F089F908B1012088
:1014A000BCE709F58079A4F5807084B206F58076F2
:1014B0001AE0CCB1A81922464946FFF722FF08B12D
:1014C0000120ABE7A81922465F49FFF749FF08B1A1
:1014D0000120A3E7224649465B4800F068F908B1BD
:1014E00001209BE7002099E7002CB0D1002095E770
:1014F0002DE9F04705460F46904600261FFA88F46E
:10150000B946B4F5007F08DC224639462846FFF785
:1015100027FF20B30120BDE8F0871EE0B4F5007F6F
:1015200010DBA8194FF400724946FFF719FF08B104
:101530000120F0E709F50079A4F5007084B206F502
:1015400000760AE04CB1A81922464946FFF708FF89
:1015500008B10120DFE70020DDE7002CDED100200C
:10156000D9E710B500BFFFF791FD10F0010FFAD1D8
:101570003648006840F0100034490860344800697B
:1015800040F400503249086104213248FEF78AFFD6
:101590002E48001F006840F010002C49091F086009
:1015A00000BFFFF773FD044614F0010FF9D114F0EA
:1015B000020FF6D1002010BD70B505460DB13C20DC
:1015C00000E00020064642F2107400E0641EFFF7BF
:1015D0005DFD10F0010F01D0002CF7D11B48006811
:1015E00040F01000194908601948006940F40050A3
:1015F0001749086150211748FEF754FF1348001F90
:10160000006840F010001149091F0860081D0068BB
:1016100040F01000091D08600D48006940F40050BA
:101620000B49086101210B48FEF73CFF3146094890
:10163000FEF738FF0548001F006840F0100003491E
:10164000091F0860002070BD4C02002014080140F2
:1016500000100140003001402DE9F04106460D46E2
:10166000442000F0D9FA07462878722806D10122D2
:1016700031463846FFF7DEF9044617E02878772828
:1016800006D1082231463846FFF7D4F904460DE06A
:10169000287861280AD1132231463846FFF7CAF963
:1016A00004461CB9F96B3846FFF75CFB2CB1384691
:1016B00000F08AFA0020BDE8F0813846FBE7F8B573
:1016C00004460D4617461E466B462A4621463046BE
:1016D000FFF78FFBF8BDF8B504460D4617461E46CA
:1016E0006B462A4621463046FFF7F8FBF8BD70B539
:1016F00004460D46164629462046FFF733FB70BDCB
:1017000070B504462046FFF7BCFA0546204600F0B7
:101710005BFA284670BD00000649074A0868504336
:1017200043F23902104408604008704701490860DC
:1017300070470000400000206D4EC64140EA0103A2
:101740009B0703D009E008C9121F08C0042AFAD277
:1017500003E011F8013B00F8013B521EF9D270473B
:10176000D2B201E000F8012B491EFBD270470022E3
:10177000F6E710B513460A4604461946FFF7F0FF90
:10178000204610BD421C10F8011B0029FBD1801A15
:10179000704710B5002200E0521C835C8C5CA342B1
:1017A00001D1002BF8D1D8B2E1B2401A10BD30B54A
:1017B00004460020034600E05B1C934203D2E05C39
:1017C000CD5C401BF8D030BD034611F8012B00F86A
:1017D000012B002AF9D11846704730B50B46014657
:1017E00000202022012409E021FA02F59D4205D3C0
:1017F00003FA02F5491B04FA02F52844151EA2F16A
:101800000102F1DC30BD0000064C074D06E0E06847
:1018100040F0010394E8070098471034AC42F6D337
:10182000FEF768FC9C2E0008BC2E00080FB4084B85
:1018300010B504A902AA039800F01CF8044602A9F6
:10184000002000F0BCF9204610BC5DF814FB00003D
:10185000BF1B000802E008C8121F08C1002AFAD105
:1018600070477047002001E001C1121F002AFBD120
:10187000704700002DE9FF4F8BB0884605460026D3
:1018800067E125287AD100246D1CB649A146A246FD
:1018900001222B78203B02FA03F0084202D00443D5
:1018A0006D1CF6E728782A2810D06FF02F022878D0
:1018B000A0F13001092915D809EB890102EB41019A
:1018C00044F0020400EB01096D1CF0E758F8049B9A
:1018D000B9F1000F03DA44F40054C9F1000944F0EF
:1018E00002046D1C28782E2817D115F8010F44F03A
:1018F00004042A280ED06FF02F022878A0F13001BE
:1019000009290AD80AEB8A0102EB410100EB010A1E
:101910006D1CF2E758F804AB6D1C28786C280FD0CA
:1019200006DC4C2817D068280DD06A2814D104E0B2
:10193000742810D07A280FD10DE044F400140AE086
:1019400044F4801401E044F440146978814202D1E7
:101950006D1C04F580146D1C2878692866D007DC9E
:10196000002876D0632828D0642807D15EE005E0FF
:101970006E2808D073282AD075287AD0DDE90D1298
:101980009047761CE4E0C4F30250022809D00328F3
:101990000DD0D8F8001004280DD00E6008F104080E
:1019A000D6E0D8F80010F217C1E90062F6E7D8F8DF
:1019B00000100E80F2E70E70F0E718F8041B8DF8A7
:1019C000001000208DF80100EB46012003E058F8DC
:1019D00004BB4FF0FF3061074FF0000701D40AE06D
:1019E0007F1C57450DDA8742FADB1BF807100029E8
:1019F000F6D106E07F1C8742FCDB1BF807100029AC
:101A0000F8D1DDE90D23A9EB07008146214600F05E
:101A1000BEF83044C61904E0DDE90D121BF8010BD5
:101A200090477F1EF8D2214648468CE058F8040BB8
:101A3000C4F302514FF00A0B032900D100B204296C
:101A400000D140B2002806DAC0F100004FF02D01AD
:101A500004E082E00DE0210504D52B218DF824104F
:101A6000012103E0E10710D02021F7E708AF08913A
:101A700014E058F8040BC4F302514FF00A0B032989
:101A800000D180B2042900D1C0B20021EEE759464E
:101A9000FFF7A3FE01F1300107F8011D0028F6D180
:101AA000ADEB070000F1200B600702D524F4803471
:101AB00001E04FF0010ADA4502DDAAEB0B0000E07D
:101AC0000020824600EB0B0108980144A9EB0100BD
:101AD0000A90E00306D4DDE90D2321460A9800F0C0
:101AE00056F80644002008E009A911F80900DDE9CC
:101AF0000D129047761C09F1010008998146884231
:101B0000F2DBE0030CD5DDE90D2321460A9800F055
:101B10003EF8064404E0DDE90D1230209047761CC3
:101B2000BAF10001AAF1010AF5DC05E0DDE90D12C8
:101B300017F8010B9047761CBBF10001ABF1010BCC
:101B4000F4DC0A982146DDE90D2300F00DF8064487
:101B50006D1C287800287FF494AE0FB03046BDE8A5
:101B6000F08F0000092801002DE9F041044600250E
:101B70001E461746880405D406E039462020B047A3
:101B800005F10105641EF8D52846BDE8F0812DE970
:101B9000F041044600251E469046C80301D5302773
:101BA00000E02027880405D506E041463846B047C6
:101BB00005F10105641EF8D52846BDE8F0810A68E4
:101BC000531C0B601070704710B5002821D0114BCA
:101BD000001F0022196803E0814203D80A464968C1
:101BE0000029F9D152B11368841A9C4204D10068CB
:101BF00018441060104602E0506000E0186039B1EF
:101C000002680B1A934203D10B681A4402604968B8
:101C1000416010BD44000020F0B50B30154D20F0A0
:101C200007010024144A0FE003688B420BD38B4258
:101C300005D95E1A43184768C3E9006700E04368A6
:101C4000136002C004E0021D10680028ECD1204699
:101C5000002802D1286808B10020F0BD064A0748D4
:101C60001060074A121A22F00702C0E9002401207E
:101C70002860D7E7480000204400002054030020DB
:101C8000500700202D2D2D2D2D424547494E204334
:101C9000455254494649434154452D2D2D2D2D0A79
:101CA0004D49494457544343416B47674177494243
:101CB00041674955575943786E397463553455799E
:101CC0007257316F6C696D51436755383542637790
:101CD0004451594A4B6F5A496876634E4151454CBD
:101CE0000A425141775454464C4D456B474131555A
:101CF000454377784351573168656D397549466476
:101D00006C596942545A584A3261574E6C63794251
:101D10005050554674595870766269356A6232304F
:101D2000670A5357356A4C69424D50564E6C5958A4
:101D3000523062475567553151395632467A6147BC
:101D40006C755A33527662694244505656544D422D
:101D50003458445445324D4445794F5445344D6AC6
:101D60004D7A0A4E316F58445451354D54497A4D8D
:101D700054497A4E546B314F566F77486A45634DDC
:101D8000426F474131554541777754515664544924
:101D9000456C76564342445A584A3061575A7059F6
:101DA0003246300A5A544343415349774451594AC1
:101DB0004B6F5A496876634E415145424251414406
:101DC000676745504144434341516F43676745420C
:101DD000414A774A41304B4A36456E444A762F7520
:101DE000766D36430A575475557374544565627061
:101DF000614C7A736A6D2F736A6B6A754A51646BB2
:101E000063616F74466C5341676868574772583214
:101E100051457A572B4F715A33642B3631745748DA
:101E20007558427A6E0A6B6E4645314A786873512E
:101E30004E32787539624657474358653846464CA6
:101E400067366E33766A4839334A4347394A6D41BB
:101E5000457243777A536A496D38786D58306E5AB7
:101E6000467A56676B380A417A4D66715351595A12
:101E7000746775474A774B454C47455A684D4A72D7
:101E8000776D794D34762B44442B2F6651627779E8
:101E90006F7873703374575139446D6B523164737A
:101EA000765866413242410A646B55735333594345
:101EB000366A58524E696D71474441772B6E6C6C8F
:101EC0007A57554D34544B346A515931704E7970AC
:101ED00056484B5674682F313561536233654C4612
:101EE0004A6557796C76324D0A716E5A44533363A2
:101EF000644170695A2B73732B49366E484A5041BE
:101F00004D446B665149504273456E712F7731577E
:101F100034556D7A3565526675555A6D7A316679E4
:101F2000666E463133553666350A595063434177FC
:101F3000454141614E674D46347748775944565282
:101F4000306A42426777466F41556B4E4838695256
:101F500070346D695277414A395453356968793222
:101F6000436144524D77485159440A5652304F42CA
:101F700042594546472B5939527775624C5A454369
:101F80004A414F5241497549416C70736132734DFA
:101F900041774741315564457745422F7751434D4D
:101FA00041417744675944565230500A4151482FB5
:101FB00042415144416765414D4130474353714768
:101FC0005349623344514542437755414134494274
:101FD0004151414566467733643937432F6C753735
:101FE0006561746841714945493348680A2B6857EF
:101FF0004E48776E354F46765144707365474C387E
:10200000634C364E696C61777662396F6C33783227
:10201000564D536730554A547A374B2B4D355073D4
:10202000577536346C353854794A54316F0A6735F0
:102030006F414A4A5446475866396549795776721E
:10204000345834626E64434874746C49434D6D7502
:10205000556D6F6B6E5939734D524262384752312C
:10206000357630307A33705761586D692B4F0A716D
:1020700056716E504D5273744B6F30776442675592
:1020800073597376747A32545A6C3279446F307063
:1020900035582F395971446657796A44684E47510B
:1020A000464C453065336467717A57532B71670A24
:1020B000516D634B4F52306462702F5352446867C6
:1020C00031326C37704A4B7A6E566667786162546B
:1020D0007461616448355A4B685148484778327A90
:1020E00039424D4D38387164723569664A4C32490F
:1020F0000A524452577A46665232574579474561EB
:102100007550395832374D5A5279514571564E4CA7
:102110004F6B503537344B32734F4E6C6E53377AAA
:10212000794E67444F376D39467A7063420A2D2DD8
:102130002D2D2D454E442043455254494649434197
:1021400054452D2D2D2D2D0A00092D2D2D2D2D42DF
:102150004547494E20434552544946494341544519
:102160002D2D2D2D2D0A4D494945307A43434137B8
:1021700075674177494241674951474E72526E69CE
:102180005A39364C744B49566A4E7A477337536AFC
:10219000414E42676B71686B6947397730424151F4
:1021A0005546414443420A796A454C4D416B47418B
:1021B00031554542684D4356564D78467A41564210
:1021C000674E5642416F54446C5A6C636D6C546157
:1021D0005764754C43424A626D4D754D523877488D
:1021E0005159445651514C0A45785A575A584A70D9
:1021F00055326C6E62694255636E567A6443424F43
:102200005A58523362334A724D546F774F41594492
:102210005651514C457A456F59796B674D6A4177F4
:102220004E6942575A584A700A55326C6E62697745
:10223000675357356A4C69417449455A7663694218
:10224000686458526F62334A70656D566B494856E0
:102250007A5A534276626D78354D55557751775994
:102260004456515144457A78570A5A584A70553263
:102270006C6E626942446247467A6379417A4946A4
:102280004231596D787059794251636D6C74595867
:102290004A3549454E6C636E52705A6D6C6A595896
:1022A000527062323467515856300A614739796149
:1022B00058523549433067527A55774868634E4DD6
:1022C0004459784D5441344D4441774D44417757FA
:1022D00068634E4D7A59774E7A45324D6A4D314F8B
:1022E000545535576A4342796A454C0A4D416B470C
:1022F0004131554542684D4356564D78467A4156D0
:1023000042674E5642416F54446C5A6C636D6C5434
:10231000615764754C43424A626D4D754D52387732
:10232000485159445651514C45785A570A5A584ABF
:102330007055326C6E62694255636E567A644342E0
:102340004F5A58523362334A724D546F774F415946
:10235000445651514C457A456F59796B674D6A41E6
:10236000774E6942575A584A7055326C6E0A626904
:1023700077675357356A4C69417449455A766369A2
:1023800042686458526F62334A70656D566B4948B3
:10239000567A5A534276626D78354D555577517756
:1023A000594456515144457A78575A584A700A55FB
:1023B000326C6E626942446247467A6379417A4977
:1023C000464231596D787059794251636D6C745938
:1023D000584A3549454E6C636E52705A6D6C6A5955
:1023E0005852706232346751585630614739790A11
:1023F0006158523549433067527A55776767456966
:102400004D4130474353714753496233445145422C
:102410004151554141344942447741776767454BC3
:10242000416F4942415143764A4167494B586F31A8
:102430000A6E6D414D7175644C4F303763664C7751
:1024400038525279374B2B442B4B514C35567769C8
:102450006A5A4955564A2F587872636778695630D8
:102460006936437171706B4B7A6A2F6935566265B4
:10247000780A7430757A2F6F392B42316673373092
:1024800050625A6D495659633967446154593376DD
:102490006A67773249495056515436306E4B575619
:1024A00053464A7555726A787566362F57686B635E
:1024B000497A0A536468445932705353394B503641
:1024C0004842525464474A615876486350617A33AF
:1024D000424A3032337464533162546C72385664F9
:1024E000364777394B496C387138636B6D635935B2
:1024F0006651470A424F2B5175655141354E303672
:1025000074526E2F41727230504F3767692B73339C
:10251000692B7A3031367A793976413972393131ED
:102520006B544D5A485278417933516B4753475455
:102530003252542B0A7243705378342F5642456EF0
:102540006B6A574E48694478706738762B5237303B
:1025500072666B2F466C61344F6E64545251384230
:102560006E632B4D554348376C5035397A75444D61
:102570004B7A31302F0A4E496557697535543643C9
:10258000555641674D424141476A676249776761E5
:10259000387744775944565230544151482F42417C
:1025A0005577417745422F7A414F42674E56485101
:1025B0003842416638450A42414D4341515977629C
:1025C0005159494B775942425155484151774559E4
:1025D0005442666F563267577A425A4D4663775671
:1025E00052594A615731685A3255765A326C6D4D9C
:1025F000434577487A41480A4267557244674D43DC
:10260000476751556A2B5854476F61736A59357241
:1026100077382B41617452494743783747533477B1
:102620004A52596A6148523063446F764C32787628
:102630005A323875646D56790A61584E705A323480
:1026400075593239744C335A7A6247396E6279352A
:102650006E61575977485159445652304F4242594A
:102660004546482F545A61664333657937384441AB
:102670004A38304D352B674B760A4D7A457A4D41B5
:1026800030474353714753496233445145424251A5
:10269000554141344942415143544A456F7758327C
:1026A0004C50324271594C7A3371334A6B747658BC
:1026B000663270586B694F4F7A450A70364234451E
:1026C000713169446B56775A4D586E6C3259746D3E
:1026D000416C2B58362F577A43686C3867477143E3
:1026E00042704833766E35664A4A6143476B6744A9
:1026F000646B2B62573438445737590A3567615237
:10270000514269352B4D48743339744271754357C2
:10271000494D6E4E5A42553467636D5537714B457E
:102720004B51735462343762444E306C4174756B54
:1027300069786C45306B463642576C4B0A574539C1
:1027400067796E364361677343716955584F6258B4
:1027500062662B65455A53715669723247336C363F
:1027600042466F4D74454D7A652F6169434B6D301C
:102770006F4877304C784F586E4769595A0A34661B
:102780005152627843316C667A6E516755793238AE
:1027900036645556346F74703646303176767058DC
:1027A000314651484B4F74773572446762374D7AE2
:1027B0005649636269644A3476455A56384E0A6807
:1027C0006E6163524872326C567A32585449494DA0
:1027D0003652557468672F61467A79516B71464F4E
:1027E0004653445839486F4C504B734564616F37BA
:1027F000574E710A2D2D2D2D2D454E442043455207
:1028000054494649434154452D2D2D2D2D0A002D67
:102810002D2D2D2D424547494E20525341205052D7
:102820004956415445204B45592D2D2D2D2D0A4DEE
:102830004949456F77494241414B43415145416EBA
:10284000416B44516F6E6F53634D6D2F2B362B626E
:102850006F4A5A4F355379314D5235756C6F764FFB
:10286000794F622B794F534F346C42325278710A50
:10287000693057564943434746596174665A415433
:102880004E623436706E6433377257315965356332
:10289000484F6553635554556E47477841336247F7
:1028A0003731735659594A643777555575447166AF
:1028B0000A652B4D6633636B4962306D5941537322
:1028C0004C444E4B4D69627A475A6653646B584E7E
:1028D00057435477444D782B704A42686D324334E5
:1028E000596E416F517359526D45776D7643624908
:1028F0007A0A692F344D503739394276444B6A474A
:10290000796E65315A44304F615248563279396494
:102910003844594542325253784C64674C714E6486
:1029200045324B616F594D4444366557584E5A51A4
:102930007A680A4D72694E426A576B334B6C556325
:10294000705732482F586C704A76643473556C3522
:10295000624B572F597971646B4E4C647830436DDC
:102960004A6E36797A346A7163636B3841774F52B5
:102970003941670A3847775365722F445662685366
:1029800062506C35462B35526D6250562F4A2B6380
:1029900058586454702F6C6739774944415141420B
:1029A000416F4942414763442F4562397A594B464A
:1029B000655559580A5656715962466C4E76784F8D
:1029C00042382B76346870354130455A714961314F
:1029D00030335368392F6B6D633075753344553917
:1029E0004137324771735551574A35716E33574BE2
:1029F00059545077750A356C6D652B617757695658
:102A000067466C31783247726B454A595750454892
:102A100030786D5A42594139744442464C6B327495
:102A2000432B6763436A726C50303368784271613C
:102A3000712B61526B530A554963674F2B7951785B
:102A4000706179465A51384F72737157674D5A4BBE
:102A50006C722B5459682B32426845684A7248613F
:102A6000646A523275447054447A4731444A702F34
:102A70006C2F6E302F667A0A32756D3966416E6240
:102A800066494F3634746B44516B6F4832577375D7
:102A90004B53332B6537454F594C684837455735AD
:102AA0004154364F577A737342454B616A49744CAF
:102AB0007631666A3152764B0A3756367553426321
:102AC0003445766F5A4F734C447669595174304F80
:102AD0002B634D66424256463656375A7644723715
:102AE00051396467707976377343697176664369E3
:102AF0004E77757170717642380A68716141444D44
:102B0000454367594541305351526E386269596F98
:102B10005673625839424A41505852454B466E39B5
:102B20003832616F5133716B57427A627973524E0A
:102B3000346F76424377304E57750A5238386E728A
:102B4000346E756C6C6976755838516C5A72534294
:102B500030382F4D76655730622F373569763755C7
:102B60005A486A65756A682B5775325552693573CC
:102B700042777A68617246384679650A366B6F6BC0
:102B80002F424D6E3876695135644E754655483939
:102B90005A747155362F68465578704E3631514506
:102BA0004E5A38735951453342447576453444760C
:102BB00049393843675945417676376D0A6D6B362A
:102BC00068553347784A35372F315A44707747363E
:102BD0004C476B54633268376C2B44666E4A5048DE
:102BE00058617A6B797A746D6C46515742555364CB
:102BF00043527157424A77556B546C74300A4736CA
:102C0000637661575A6538447161372B4B344739C5
:102C1000583645424D4D772F797656707268734518
:102C20002F3231774A4949685769527A4D70654168
:102C300037583566743057785947475041310A4EF6
:102C40007434343370326A412F354A3372726846B5
:102C50004C483950525A33784F7A426262754C323E
:102C60002B497470656B4367594249664F4C713606
:102C7000536B77457153704D78456C3558726F0AB8
:102C80004F744A4C766A63444A6A365138725278B5
:102C90003162497A304868333771554B545057790F
:102CA000422F6675584C566F514F62764F54354CD3
:102CB00054445439755A626A47484F61305A7343D5
:102CC0000A6854332F594C7869726E4D6357787681
:102CD0002B38623379623250674D58655876744BA1
:102CE0004A7A4263546B36516D44386452455434C9
:102CF0003365663756646D396C646C4334354159BD
:102D0000620A7961774831647177364A586B447248
:102D10006534333969444B774B426748346366788E
:102D2000563650386D434D33417536307750344602
:102D300068675A56625743324732727A4244635543
:102D400073530A714B4F793439707A475336564D65
:102D5000507274796A51746965624333574D6A766B
:102D6000626D596E5A5368744B5134666839512BF1
:102D70007A4865437278635A377873397A5666466B
:102D800052412B0A374953786A41463965575937BA
:102D90003450445746445A563331465A62484E429C
:102DA0004146495854304F6D6F4947396750636801
:102DB000504164584D78674834744E545A4C4459C5
:102DC0002B684D590A392F3070416F4742414A53A1
:102DD0006A59544E622F6E6E4A756F48374D5A4B82
:102DE00069723047647A6E5879745055677A5749DA
:102DF0007478705A445A6F30666B67676C553861E7
:102E00006F6134734D0A3774536E71584A58485085
:102E1000564F314F66537648714670352B46576A88
:102E20006A4E583468753477627A556B62757048AB
:102E3000524151586C736B68637237306D4D454425
:102E40006E48474B576F0A3135792F31472F6264EF
:102E500076704D526D734B6A36766935703177787E
:102E6000724537774B632F6A6F5944684462543513
:102E700065704930686B2B70754F420A2D2D2D2DD2
:102E80002D454E44205253412050524956415445FD
:102E9000204B45592D2D2D2D2D0A0000BC2E00084C
:102EA000000000204C00000054180008082F000803
:102EB0004C0000200411000064180008492100089B
:102EC000841C00080F28000801000000000000001A
:102ED000000000000000000000000000006CDC02A8
:102EE00000000000000000000102030406070809BA
:102EF00000000000000000000000000000000000D2
:082F00000000000000000000C9
:04000005080000ED02
:00000001FF
